{"abi":[{"type":"constructor","inputs":[{"name":"_listingFee","type":"uint256","internalType":"uint256"}],"stateMutability":"nonpayable"},{"type":"function","name":"DepositToken","inputs":[{"name":"_token","type":"address","internalType":"address"},{"name":"_name","type":"string","internalType":"string"},{"name":"_symbol","type":"string","internalType":"string"}],"outputs":[],"stateMutability":"nonpayable"},{"type":"function","name":"TARGET","inputs":[],"outputs":[{"name":"","type":"uint256","internalType":"uint256"}],"stateMutability":"view"},{"type":"function","name":"WithdrawToken","inputs":[{"name":"_amount","type":"uint256","internalType":"uint256"}],"outputs":[],"stateMutability":"nonpayable"},{"type":"function","name":"buyToken","inputs":[{"name":"_token","type":"address","internalType":"address"},{"name":"_amount","type":"uint256","internalType":"uint256"}],"outputs":[],"stateMutability":"payable"},{"type":"function","name":"createToken","inputs":[{"name":"_name","type":"string","internalType":"string"},{"name":"_symbol","type":"string","internalType":"string"},{"name":"_description","type":"string","internalType":"string"}],"outputs":[],"stateMutability":"payable"},{"type":"function","name":"getCostPrice","inputs":[{"name":"_sold","type":"uint256","internalType":"uint256"}],"outputs":[{"name":"","type":"uint256","internalType":"uint256"}],"stateMutability":"pure"},{"type":"function","name":"getTokenSale","inputs":[{"name":"_index","type":"uint256","internalType":"uint256"}],"outputs":[{"name":"","type":"tuple","internalType":"struct FactoryContract.TokenSale","components":[{"name":"token","type":"address","internalType":"address"},{"name":"name","type":"string","internalType":"string"},{"name":"desciption","type":"string","internalType":"string"},{"name":"creator","type":"address","internalType":"address"},{"name":"sold","type":"uint256","internalType":"uint256"},{"name":"raised","type":"uint256","internalType":"uint256"},{"name":"isOpen","type":"bool","internalType":"bool"}]}],"stateMutability":"view"},{"type":"function","name":"listingFee","inputs":[],"outputs":[{"name":"","type":"uint256","internalType":"uint256"}],"stateMutability":"view"},{"type":"function","name":"owner","inputs":[],"outputs":[{"name":"","type":"address","internalType":"address"}],"stateMutability":"view"},{"type":"function","name":"tokenToSale","inputs":[{"name":"","type":"address","internalType":"address"}],"outputs":[{"name":"token","type":"address","internalType":"address"},{"name":"name","type":"string","internalType":"string"},{"name":"desciption","type":"string","internalType":"string"},{"name":"creator","type":"address","internalType":"address"},{"name":"sold","type":"uint256","internalType":"uint256"},{"name":"raised","type":"uint256","internalType":"uint256"},{"name":"isOpen","type":"bool","internalType":"bool"}],"stateMutability":"view"},{"type":"function","name":"tokens","inputs":[{"name":"","type":"uint256","internalType":"uint256"}],"outputs":[{"name":"","type":"address","internalType":"address"}],"stateMutability":"view"},{"type":"function","name":"totalTokens","inputs":[],"outputs":[{"name":"","type":"uint256","internalType":"uint256"}],"stateMutability":"view"},{"type":"event","name":"Buy","inputs":[{"name":"token","type":"address","indexed":true,"internalType":"address"},{"name":"amount","type":"uint256","indexed":false,"internalType":"uint256"}],"anonymous":false},{"type":"event","name":"Created","inputs":[{"name":"token","type":"address","indexed":true,"internalType":"address"}],"anonymous":false},{"type":"error","name":"AmountToHigh","inputs":[]},{"type":"error","name":"AmountToLow","inputs":[]},{"type":"error","name":"InsufficientFunds","inputs":[]},{"type":"error","name":"ListingFeerequired","inputs":[]},{"type":"error","name":"NotAuthorized","inputs":[]},{"type":"error","name":"SaleIsClosed","inputs":[]},{"type":"error","name":"TargetNotReached","inputs":[]}],"bytecode":{"object":"0x60a0604052348015600e575f5ffd5b50604051611ff4380380611ff4833981016040819052602b916043565b6080525f80546001600160a01b031916331790556059565b5f602082840312156052575f5ffd5b5051919050565b608051611f836100715f395f61013b0152611f835ff3fe6080604052600436106100a5575f3560e01c80638da5cb5b116100625780638da5cb5b1461019f57806394aed7d0146101bd5780639c0ad5ed146101d0578063a4b910fb14610202578063cc1f2afa14610221578063f20d6a2a1461023c575f5ffd5b80631fbc147b146100a95780634f64b2be146100de57806368f8fc10146101155780636a1b7ecc1461012a5780637e1c0c091461016b57806388e1acdd14610180575b5f5ffd5b3480156100b4575f5ffd5b506100c86100c3366004610e50565b61025b565b6040516100d59190610e95565b60405180910390f35b3480156100e9575f5ffd5b506100fd6100f8366004610e50565b61045c565b6040516001600160a01b0390911681526020016100d5565b610128610123366004610f3a565b610484565b005b348015610135575f5ffd5b5061015d7f000000000000000000000000000000000000000000000000000000000000000081565b6040519081526020016100d5565b348015610176575f5ffd5b5061015d60025481565b34801561018b575f5ffd5b5061012861019a366004611001565b61068c565b3480156101aa575f5ffd5b505f546100fd906001600160a01b031681565b6101286101cb366004611075565b610a10565b3480156101db575f5ffd5b506101ef6101ea3660046110c5565b610be3565b6040516100d597969594939291906110e5565b34801561020d575f5ffd5b5061012861021c366004610e50565b610d41565b34801561022c575f5ffd5b5061015d6729a2241af62c000081565b348015610247575f5ffd5b5061015d610256366004610e50565b610e05565b6102aa6040518060e001604052805f6001600160a01b0316815260200160608152602001606081526020015f6001600160a01b031681526020015f81526020015f81526020015f151581525090565b60035f600184815481106102c0576102c061114c565b5f9182526020808320909101546001600160a01b039081168452838201949094526040928301909120825160e08101909352805490931682526001830180549293929184019161030f90611160565b80601f016020809104026020016040519081016040528092919081815260200182805461033b90611160565b80156103865780601f1061035d57610100808354040283529160200191610386565b820191905f5260205f20905b81548152906001019060200180831161036957829003601f168201915b5050505050815260200160028201805461039f90611160565b80601f01602080910402602001604051908101604052809291908181526020018280546103cb90611160565b80156104165780601f106103ed57610100808354040283529160200191610416565b820191905f5260205f20905b8154815290600101906020018083116103f957829003601f168201915b505050918352505060038201546001600160a01b03166020820152600482015460408201526005820154606082015260069091015460ff16151560809091015292915050565b6001818154811061046b575f80fd5b5f918252602090912001546001600160a01b0316905081565b6001600160a01b0382165f908152600360205260409020600681015460ff1615156001146104c55760405163579562bd60e11b815260040160405180910390fd5b670de0b6b3a76400008210156104ee57604051638e18d87160e01b815260040160405180910390fd5b69021e19e0c9bab240000082111561051957604051630977594360e21b815260040160405180910390fd5b5f6105278260040154610e05565b90505f6105396402540be400856111ac565b61054390836111cb565b9050803410156105665760405163356680b760e01b815260040160405180910390fd5b83836004015f82825461057991906111e8565b9250508190555080836005015f82825461059391906111e8565b909155505060048301546969e10de76676d08000001115806105c157506729a2241af62c0000836005015410155b156105d35760068301805460ff191690555b60405163a9059cbb60e01b8152336004820152602481018590526001600160a01b0386169063a9059cbb906044016020604051808303815f875af115801561061d573d5f5f3e3d5ffd5b505050506040513d601f19601f8201168201806040525081019061064191906111fb565b50846001600160a01b03167fe3d4187f6ca4248660cc0ac8b8056515bac4a8132be2eca31d6d0cc170722a7e8560405161067d91815260200190565b60405180910390a25050505050565b5f33838369d3c21bcecceda10000006040516106a790610e43565b6106b4949392919061121a565b604051809103905ff0801580156106cd573d5f5f3e3d5ffd5b506001600160a01b038086165f908152600360209081526040808320815160e08101909252805490941681526001840180549596509294909392918401919061071590611160565b80601f016020809104026020016040519081016040528092919081815260200182805461074190611160565b801561078c5780601f106107635761010080835404028352916020019161078c565b820191905f5260205f20905b81548152906001019060200180831161076f57829003601f168201915b505050505081526020016002820180546107a590611160565b80601f01602080910402602001604051908101604052809291908181526020018280546107d190611160565b801561081c5780601f106107f35761010080835404028352916020019161081c565b820191905f5260205f20905b8154815290600101906020018083116107ff57829003601f168201915b505050918352505060038201546001600160a01b03166020820152600482015460408201526005820154606082015260069091015460ff16151560809091015260c08101519091501515600114610886576040516365be670760e11b815260040160405180910390fd5b60608101516040516370a0823160e01b81523060048201526001600160a01b0384169163a9059cbb9183906370a0823190602401602060405180830381865afa1580156108d5573d5f5f3e3d5ffd5b505050506040513d601f19601f820116820180604052508101906108f99190611261565b6040516001600160e01b031960e085901b1681526001600160a01b03909216600483015260248201526044016020604051808303815f875af1158015610941573d5f5f3e3d5ffd5b505050506040513d601f19601f8201168201806040525081019061096591906111fb565b505f81606001516001600160a01b03168260a001516040515f6040518083038185875af1925050503d805f81146109b7576040519150601f19603f3d011682016040523d82523d5f602084013e6109bc565b606091505b5050905080610a085760405162461bcd60e51b8152602060048201526013602482015272115512081d1c985b9cd9995c8819985a5b1959606a1b60448201526064015b60405180910390fd5b505050505050565b5f3411610a30576040516364f6fcd960e11b815260040160405180910390fd5b5f33848469d3c21bcecceda1000000604051610a4b90610e43565b610a58949392919061121a565b604051809103905ff080158015610a71573d5f5f3e3d5ffd5b506001805480820182555f9182527fb10e2d527612073b26eecdfd717e6a320cf44b4afac2b0732d9fcbe2b7fa0cf60180546001600160a01b0319166001600160a01b0384161790556002805492935090610acb83611278565b90915550506040805160e0810182526001600160a01b0383811680835260208084018981528486018890523360608601525f6080860181905260a08601819052600160c087018190529381526003909252949020835181546001600160a01b031916931692909217825592519192839290820190610b4990826112dc565b5060408201516002820190610b5e90826112dc565b5060608201516003820180546001600160a01b0319166001600160a01b039283161790556080830151600483015560a0830151600583015560c0909201516006909101805460ff1916911515919091179055604051908316907f1449abf21e49fd025f33495e77f7b1461caefdd3d4bb646424a3f445c4576a5b905f90a25050505050565b60036020525f9081526040902080546001820180546001600160a01b039092169291610c0e90611160565b80601f0160208091040260200160405190810160405280929190818152602001828054610c3a90611160565b8015610c855780601f10610c5c57610100808354040283529160200191610c85565b820191905f5260205f20905b815481529060010190602001808311610c6857829003601f168201915b505050505090806002018054610c9a90611160565b80601f0160208091040260200160405190810160405280929190818152602001828054610cc690611160565b8015610d115780601f10610ce857610100808354040283529160200191610d11565b820191905f5260205f20905b815481529060010190602001808311610cf457829003601f168201915b5050505060038301546004840154600585015460069095015493946001600160a01b039092169390925060ff1687565b5f546001600160a01b03163314610d6b5760405163ea8e4eb560e01b815260040160405180910390fd5b5f80546040516001600160a01b039091169083908381818185875af1925050503d805f8114610db5576040519150601f19603f3d011682016040523d82523d5f602084013e610dba565b606091505b5050905080610e015760405162461bcd60e51b8152602060048201526013602482015272115512081d1c985b9cd9995c8819985a5b1959606a1b60448201526064016109ff565b5050565b5f655af3107a40008069021e19e0c9bab24000008382610e2583886111ac565b610e2f90856111cb565b610e3991906111e8565b9695505050505050565b610bb68061139883390190565b5f60208284031215610e60575f5ffd5b5035919050565b5f81518084528060208401602086015e5f602082860101526020601f19601f83011685010191505092915050565b602080825282516001600160a01b03168282015282015160e060408301525f90610ec3610100840182610e67565b90506040840151601f19848303016060850152610ee08282610e67565b91505060018060a01b036060850151166080840152608084015160a084015260a084015160c084015260c0840151151560e08401528091505092915050565b80356001600160a01b0381168114610f35575f5ffd5b919050565b5f5f60408385031215610f4b575f5ffd5b610f5483610f1f565b946020939093013593505050565b634e487b7160e01b5f52604160045260245ffd5b5f82601f830112610f85575f5ffd5b813567ffffffffffffffff811115610f9f57610f9f610f62565b604051601f8201601f19908116603f0116810167ffffffffffffffff81118282101715610fce57610fce610f62565b604052818152838201602001851015610fe5575f5ffd5b816020850160208301375f918101602001919091529392505050565b5f5f5f60608486031215611013575f5ffd5b61101c84610f1f565b9250602084013567ffffffffffffffff811115611037575f5ffd5b61104386828701610f76565b925050604084013567ffffffffffffffff81111561105f575f5ffd5b61106b86828701610f76565b9150509250925092565b5f5f5f60608486031215611087575f5ffd5b833567ffffffffffffffff81111561109d575f5ffd5b6110a986828701610f76565b935050602084013567ffffffffffffffff811115611037575f5ffd5b5f602082840312156110d5575f5ffd5b6110de82610f1f565b9392505050565b6001600160a01b038816815260e0602082018190525f9061110890830189610e67565b828103604084015261111a8189610e67565b6001600160a01b039790971660608401525050608081019390935260a0830191909152151560c0909101529392505050565b634e487b7160e01b5f52603260045260245ffd5b600181811c9082168061117457607f821691505b60208210810361119257634e487b7160e01b5f52602260045260245ffd5b50919050565b634e487b7160e01b5f52601160045260245ffd5b5f826111c657634e487b7160e01b5f52601260045260245ffd5b500490565b80820281158282048414176111e2576111e2611198565b92915050565b808201808211156111e2576111e2611198565b5f6020828403121561120b575f5ffd5b815180151581146110de575f5ffd5b6001600160a01b03851681526080602082018190525f9061123d90830186610e67565b828103604084015261124f8186610e67565b91505082606083015295945050505050565b5f60208284031215611271575f5ffd5b5051919050565b5f6001820161128957611289611198565b5060010190565b601f8211156112d757805f5260205f20601f840160051c810160208510156112b55750805b601f840160051c820191505b818110156112d4575f81556001016112c1565b50505b505050565b815167ffffffffffffffff8111156112f6576112f6610f62565b61130a816113048454611160565b84611290565b6020601f82116001811461133c575f83156113255750848201515b5f19600385901b1c1916600184901b1784556112d4565b5f84815260208120601f198516915b8281101561136b578785015182556020948501946001909201910161134b565b508482101561138857868401515f19600387901b60f8161c191681555b50505050600190811b0190555056fe608060405234801561000f575f5ffd5b50604051610bb6380380610bb683398101604081905261002e91610289565b8282600361003c8382610397565b5060046100498282610397565b505060058054336001600160a01b03199182168117909255600680549091166001600160a01b038816179055610080915082610089565b50505050610476565b6001600160a01b0382166100b75760405163ec442f0560e01b81525f60048201526024015b60405180910390fd5b6100c25f83836100c6565b5050565b6001600160a01b0383166100f0578060025f8282546100e59190610451565b909155506101609050565b6001600160a01b0383165f90815260208190526040902054818110156101425760405163391434e360e21b81526001600160a01b038516600482015260248101829052604481018390526064016100ae565b6001600160a01b0384165f9081526020819052604090209082900390555b6001600160a01b03821661017c5760028054829003905561019a565b6001600160a01b0382165f9081526020819052604090208054820190555b816001600160a01b0316836001600160a01b03167fddf252ad1be2c89b69c2b068fc378daa952ba7f163c4a11628f55a4df523b3ef836040516101df91815260200190565b60405180910390a3505050565b634e487b7160e01b5f52604160045260245ffd5b5f82601f83011261020f575f5ffd5b81516001600160401b03811115610228576102286101ec565b604051601f8201601f19908116603f011681016001600160401b0381118282101715610256576102566101ec565b60405281815283820160200185101561026d575f5ffd5b8160208501602083015e5f918101602001919091529392505050565b5f5f5f5f6080858703121561029c575f5ffd5b84516001600160a01b03811681146102b2575f5ffd5b60208601519094506001600160401b038111156102cd575f5ffd5b6102d987828801610200565b604087015190945090506001600160401b038111156102f6575f5ffd5b61030287828801610200565b606096909601519497939650505050565b600181811c9082168061032757607f821691505b60208210810361034557634e487b7160e01b5f52602260045260245ffd5b50919050565b601f82111561039257805f5260205f20601f840160051c810160208510156103705750805b601f840160051c820191505b8181101561038f575f815560010161037c565b50505b505050565b81516001600160401b038111156103b0576103b06101ec565b6103c4816103be8454610313565b8461034b565b6020601f8211600181146103f6575f83156103df5750848201515b5f19600385901b1c1916600184901b17845561038f565b5f84815260208120601f198516915b828110156104255787850151825560209485019460019092019101610405565b508482101561044257868401515f19600387901b60f8161c191681555b50505050600190811b01905550565b8082018082111561047057634e487b7160e01b5f52601160045260245ffd5b92915050565b610733806104835f395ff3fe608060405234801561000f575f5ffd5b50600436106100a6575f3560e01c8063313ce5671161006e578063313ce5671461013757806370a08231146101465780638da5cb5b1461016e57806395d89b4114610181578063a9059cbb14610189578063dd62ed3e1461019c575f5ffd5b806302d05d3f146100aa57806306fdde03146100da578063095ea7b3146100ef57806318160ddd1461011257806323b872dd14610124575b5f5ffd5b6006546100bd906001600160a01b031681565b6040516001600160a01b0390911681526020015b60405180910390f35b6100e26101d4565b6040516100d191906105a3565b6101026100fd3660046105f3565b610264565b60405190151581526020016100d1565b6002545b6040519081526020016100d1565b61010261013236600461061b565b61027d565b604051601281526020016100d1565b610116610154366004610655565b6001600160a01b03165f9081526020819052604090205490565b6005546100bd906001600160a01b031681565b6100e26102a0565b6101026101973660046105f3565b6102af565b6101166101aa366004610675565b6001600160a01b039182165f90815260016020908152604080832093909416825291909152205490565b6060600380546101e3906106a6565b80601f016020809104026020016040519081016040528092919081815260200182805461020f906106a6565b801561025a5780601f106102315761010080835404028352916020019161025a565b820191905f5260205f20905b81548152906001019060200180831161023d57829003601f168201915b5050505050905090565b5f336102718185856102bc565b60019150505b92915050565b5f3361028a8582856102ce565b61029585858561034e565b506001949350505050565b6060600480546101e3906106a6565b5f3361027181858561034e565b6102c983838360016103ab565b505050565b6001600160a01b038381165f908152600160209081526040808320938616835292905220545f198114610348578181101561033a57604051637dc7a0d960e11b81526001600160a01b038416600482015260248101829052604481018390526064015b60405180910390fd5b61034884848484035f6103ab565b50505050565b6001600160a01b03831661037757604051634b637e8f60e11b81525f6004820152602401610331565b6001600160a01b0382166103a05760405163ec442f0560e01b81525f6004820152602401610331565b6102c983838361047d565b6001600160a01b0384166103d45760405163e602df0560e01b81525f6004820152602401610331565b6001600160a01b0383166103fd57604051634a1406b160e11b81525f6004820152602401610331565b6001600160a01b038085165f908152600160209081526040808320938716835292905220829055801561034857826001600160a01b0316846001600160a01b03167f8c5be1e5ebec7d5bd14f71427d1e84f3dd0314c0f7b2291e5b200ac8c7c3b9258460405161046f91815260200190565b60405180910390a350505050565b6001600160a01b0383166104a7578060025f82825461049c91906106de565b909155506105179050565b6001600160a01b0383165f90815260208190526040902054818110156104f95760405163391434e360e21b81526001600160a01b03851660048201526024810182905260448101839052606401610331565b6001600160a01b0384165f9081526020819052604090209082900390555b6001600160a01b03821661053357600280548290039055610551565b6001600160a01b0382165f9081526020819052604090208054820190555b816001600160a01b0316836001600160a01b03167fddf252ad1be2c89b69c2b068fc378daa952ba7f163c4a11628f55a4df523b3ef8360405161059691815260200190565b60405180910390a3505050565b602081525f82518060208401528060208501604085015e5f604082850101526040601f19601f83011684010191505092915050565b80356001600160a01b03811681146105ee575f5ffd5b919050565b5f5f60408385031215610604575f5ffd5b61060d836105d8565b946020939093013593505050565b5f5f5f6060848603121561062d575f5ffd5b610636846105d8565b9250610644602085016105d8565b929592945050506040919091013590565b5f60208284031215610665575f5ffd5b61066e826105d8565b9392505050565b5f5f60408385031215610686575f5ffd5b61068f836105d8565b915061069d602084016105d8565b90509250929050565b600181811c908216806106ba57607f821691505b6020821081036106d857634e487b7160e01b5f52602260045260245ffd5b50919050565b8082018082111561027757634e487b7160e01b5f52601160045260245ffdfea26469706673582212206347ad87f4bb6072ddb7cb3c31119f25ebf748522b345013484e80cfd39a553964736f6c634300081b0033a26469706673582212203187d5b91b7b25f7bfa48239acaa514464eca9d2428a53ded7c4bc3228bda4df64736f6c634300081b0033","linkReferences":{}},"methodIdentifiers":{"DepositToken(address,string,string)":"88e1acdd","TARGET()":"cc1f2afa","WithdrawToken(uint256)":"a4b910fb","buyToken(address,uint256)":"68f8fc10","createToken(string,string,string)":"94aed7d0","getCostPrice(uint256)":"f20d6a2a","getTokenSale(uint256)":"1fbc147b","listingFee()":"6a1b7ecc","owner()":"8da5cb5b","tokenToSale(address)":"9c0ad5ed","tokens(uint256)":"4f64b2be","totalTokens()":"7e1c0c09"},"id":25}