{"abi":[{"type":"constructor","inputs":[{"name":"_listingFee","type":"uint256","internalType":"uint256"}],"stateMutability":"nonpayable"},{"type":"function","name":"DepositToken","inputs":[{"name":"_token","type":"address","internalType":"address"},{"name":"_name","type":"string","internalType":"string"},{"name":"_symbol","type":"string","internalType":"string"}],"outputs":[],"stateMutability":"nonpayable"},{"type":"function","name":"TARGET","inputs":[],"outputs":[{"name":"","type":"uint256","internalType":"uint256"}],"stateMutability":"view"},{"type":"function","name":"WithdrawToken","inputs":[{"name":"_amount","type":"uint256","internalType":"uint256"}],"outputs":[],"stateMutability":"nonpayable"},{"type":"function","name":"buyToken","inputs":[{"name":"_token","type":"address","internalType":"address"},{"name":"_amount","type":"uint256","internalType":"uint256"}],"outputs":[],"stateMutability":"payable"},{"type":"function","name":"createToken","inputs":[{"name":"_name","type":"string","internalType":"string"},{"name":"_symbol","type":"string","internalType":"string"}],"outputs":[],"stateMutability":"payable"},{"type":"function","name":"getCostPrice","inputs":[{"name":"_sold","type":"uint256","internalType":"uint256"}],"outputs":[{"name":"","type":"uint256","internalType":"uint256"}],"stateMutability":"pure"},{"type":"function","name":"getTokenSale","inputs":[{"name":"_index","type":"uint256","internalType":"uint256"}],"outputs":[{"name":"","type":"tuple","internalType":"struct FactoryContract.TokenSale","components":[{"name":"token","type":"address","internalType":"address"},{"name":"name","type":"string","internalType":"string"},{"name":"creator","type":"address","internalType":"address"},{"name":"sold","type":"uint256","internalType":"uint256"},{"name":"raised","type":"uint256","internalType":"uint256"},{"name":"isOpen","type":"bool","internalType":"bool"}]}],"stateMutability":"view"},{"type":"function","name":"listingFee","inputs":[],"outputs":[{"name":"","type":"uint256","internalType":"uint256"}],"stateMutability":"view"},{"type":"function","name":"owner","inputs":[],"outputs":[{"name":"","type":"address","internalType":"address"}],"stateMutability":"view"},{"type":"function","name":"tokenToSale","inputs":[{"name":"","type":"address","internalType":"address"}],"outputs":[{"name":"token","type":"address","internalType":"address"},{"name":"name","type":"string","internalType":"string"},{"name":"creator","type":"address","internalType":"address"},{"name":"sold","type":"uint256","internalType":"uint256"},{"name":"raised","type":"uint256","internalType":"uint256"},{"name":"isOpen","type":"bool","internalType":"bool"}],"stateMutability":"view"},{"type":"function","name":"tokens","inputs":[{"name":"","type":"uint256","internalType":"uint256"}],"outputs":[{"name":"","type":"address","internalType":"address"}],"stateMutability":"view"},{"type":"function","name":"totalTokens","inputs":[],"outputs":[{"name":"","type":"uint256","internalType":"uint256"}],"stateMutability":"view"},{"type":"event","name":"Buy","inputs":[{"name":"token","type":"address","indexed":true,"internalType":"address"},{"name":"amount","type":"uint256","indexed":false,"internalType":"uint256"}],"anonymous":false},{"type":"event","name":"Created","inputs":[{"name":"token","type":"address","indexed":true,"internalType":"address"}],"anonymous":false},{"type":"error","name":"AmountToHigh","inputs":[]},{"type":"error","name":"AmountToLow","inputs":[]},{"type":"error","name":"InsufficientFunds","inputs":[]},{"type":"error","name":"ListingFeerequired","inputs":[]},{"type":"error","name":"NotAuthorized","inputs":[]},{"type":"error","name":"SaleIsClosed","inputs":[]},{"type":"error","name":"TargetNotReached","inputs":[]}],"bytecode":{"object":"0x60a0604052348015600e575f5ffd5b50604051611e05380380611e05833981016040819052602b916043565b6080525f80546001600160a01b031916331790556059565b5f602082840312156052575f5ffd5b5051919050565b608051611d946100715f395f61014e0152611d945ff3fe6080604052600436106100a5575f3560e01c806388e1acdd1161006257806388e1acdd146101935780638da5cb5b146101b25780639c0ad5ed146101d0578063a4b910fb14610201578063cc1f2afa14610220578063f20d6a2a1461023b575f5ffd5b80631fbc147b146100a95780632f2f2d56146100de5780634f64b2be146100f357806368f8fc101461012a5780636a1b7ecc1461013d5780637e1c0c091461017e575b5f5ffd5b3480156100b4575f5ffd5b506100c86100c3366004610c7f565b61025a565b6040516100d59190610cc4565b60405180910390f35b6100f16100ec366004610dce565b6103c4565b005b3480156100fe575f5ffd5b5061011261010d366004610c7f565b61057a565b6040516001600160a01b0390911681526020016100d5565b6100f1610138366004610e4e565b6105a2565b348015610148575f5ffd5b506101707f000000000000000000000000000000000000000000000000000000000000000081565b6040519081526020016100d5565b348015610189575f5ffd5b5061017060025481565b34801561019e575f5ffd5b506100f16101ad366004610e76565b6107aa565b3480156101bd575f5ffd5b505f54610112906001600160a01b031681565b3480156101db575f5ffd5b506101ef6101ea366004610eea565b610a9e565b6040516100d596959493929190610f0a565b34801561020c575f5ffd5b506100f161021b366004610c7f565b610b70565b34801561022b575f5ffd5b506101706729a2241af62c000081565b348015610246575f5ffd5b50610170610255366004610c7f565b610c34565b6102a26040518060c001604052805f6001600160a01b03168152602001606081526020015f6001600160a01b031681526020015f81526020015f81526020015f151581525090565b60035f600184815481106102b8576102b8610f5d565b5f9182526020808320909101546001600160a01b039081168452838201949094526040928301909120825160c08101909352805490931682526001830180549293929184019161030790610f71565b80601f016020809104026020016040519081016040528092919081815260200182805461033390610f71565b801561037e5780601f106103555761010080835404028352916020019161037e565b820191905f5260205f20905b81548152906001019060200180831161036157829003601f168201915b505050918352505060028201546001600160a01b03166020820152600382015460408201526004820154606082015260059091015460ff16151560809091015292915050565b5f34116103e4576040516364f6fcd960e11b815260040160405180910390fd5b5f33838369d3c21bcecceda10000006040516103ff90610c72565b61040c9493929190610fa9565b604051809103905ff080158015610425573d5f5f3e3d5ffd5b506001805480820182555f9182527fb10e2d527612073b26eecdfd717e6a320cf44b4afac2b0732d9fcbe2b7fa0cf60180546001600160a01b0319166001600160a01b038416179055600280549293509061047f83611004565b90915550506040805160c0810182526001600160a01b03838116808352602080840188815233858701525f6060860181905260808601819052600160a087018190529381526003909252949020835181546001600160a01b0319169316929092178255925191928392908201906104f69082611068565b506040828101516002830180546001600160a01b0319166001600160a01b03928316179055606084015160038401556080840151600484015560a0909301516005909201805460ff19169215159290921790915551908316907f1449abf21e49fd025f33495e77f7b1461caefdd3d4bb646424a3f445c4576a5b905f90a250505050565b60018181548110610589575f80fd5b5f918252602090912001546001600160a01b0316905081565b6001600160a01b0382165f908152600360205260409020600581015460ff1615156001146105e35760405163579562bd60e11b815260040160405180910390fd5b670de0b6b3a764000082101561060c57604051638e18d87160e01b815260040160405180910390fd5b69021e19e0c9bab240000082111561063757604051630977594360e21b815260040160405180910390fd5b5f6106458260030154610c34565b90505f6106576402540be40085611123565b6106619083611142565b9050803410156106845760405163356680b760e01b815260040160405180910390fd5b83836003015f828254610697919061115f565b9250508190555080836004015f8282546106b1919061115f565b909155505060038301546969e10de76676d08000001115806106df57506729a2241af62c0000836004015410155b156106f15760058301805460ff191690555b60405163a9059cbb60e01b8152336004820152602481018590526001600160a01b0386169063a9059cbb906044016020604051808303815f875af115801561073b573d5f5f3e3d5ffd5b505050506040513d601f19601f8201168201806040525081019061075f9190611172565b50846001600160a01b03167fe3d4187f6ca4248660cc0ac8b8056515bac4a8132be2eca31d6d0cc170722a7e8560405161079b91815260200190565b60405180910390a25050505050565b5f33838369d3c21bcecceda10000006040516107c590610c72565b6107d29493929190610fa9565b604051809103905ff0801580156107eb573d5f5f3e3d5ffd5b506001600160a01b038086165f908152600360209081526040808320815160c08101909252805490941681526001840180549596509294909392918401919061083390610f71565b80601f016020809104026020016040519081016040528092919081815260200182805461085f90610f71565b80156108aa5780601f10610881576101008083540402835291602001916108aa565b820191905f5260205f20905b81548152906001019060200180831161088d57829003601f168201915b505050918352505060028201546001600160a01b03166020820152600382015460408201526004820154606082015260059091015460ff16151560809091015260a08101519091501515600114610914576040516365be670760e11b815260040160405180910390fd5b60408181015190516370a0823160e01b81523060048201526001600160a01b0384169163a9059cbb9183906370a0823190602401602060405180830381865afa158015610963573d5f5f3e3d5ffd5b505050506040513d601f19601f820116820180604052508101906109879190611191565b6040516001600160e01b031960e085901b1681526001600160a01b03909216600483015260248201526044016020604051808303815f875af11580156109cf573d5f5f3e3d5ffd5b505050506040513d601f19601f820116820180604052508101906109f39190611172565b505f81604001516001600160a01b031682608001516040515f6040518083038185875af1925050503d805f8114610a45576040519150601f19603f3d011682016040523d82523d5f602084013e610a4a565b606091505b5050905080610a965760405162461bcd60e51b8152602060048201526013602482015272115512081d1c985b9cd9995c8819985a5b1959606a1b60448201526064015b60405180910390fd5b505050505050565b60036020525f9081526040902080546001820180546001600160a01b039092169291610ac990610f71565b80601f0160208091040260200160405190810160405280929190818152602001828054610af590610f71565b8015610b405780601f10610b1757610100808354040283529160200191610b40565b820191905f5260205f20905b815481529060010190602001808311610b2357829003601f168201915b5050505060028301546003840154600485015460059095015493946001600160a01b039092169390925060ff1686565b5f546001600160a01b03163314610b9a5760405163ea8e4eb560e01b815260040160405180910390fd5b5f80546040516001600160a01b039091169083908381818185875af1925050503d805f8114610be4576040519150601f19603f3d011682016040523d82523d5f602084013e610be9565b606091505b5050905080610c305760405162461bcd60e51b8152602060048201526013602482015272115512081d1c985b9cd9995c8819985a5b1959606a1b6044820152606401610a8d565b5050565b5f655af3107a40008069021e19e0c9bab24000008382610c548388611123565b610c5e9085611142565b610c68919061115f565b9695505050505050565b610bb6806111a983390190565b5f60208284031215610c8f575f5ffd5b5035919050565b5f81518084528060208401602086015e5f602082860101526020601f19601f83011685010191505092915050565b602080825282516001600160a01b03168282015282015160c060408301525f90610cf160e0840182610c96565b905060018060a01b03604085015116606084015260608401516080840152608084015160a084015260a0840151151560c08401528091505092915050565b634e487b7160e01b5f52604160045260245ffd5b5f82601f830112610d52575f5ffd5b813567ffffffffffffffff811115610d6c57610d6c610d2f565b604051601f8201601f19908116603f0116810167ffffffffffffffff81118282101715610d9b57610d9b610d2f565b604052818152838201602001851015610db2575f5ffd5b816020850160208301375f918101602001919091529392505050565b5f5f60408385031215610ddf575f5ffd5b823567ffffffffffffffff811115610df5575f5ffd5b610e0185828601610d43565b925050602083013567ffffffffffffffff811115610e1d575f5ffd5b610e2985828601610d43565b9150509250929050565b80356001600160a01b0381168114610e49575f5ffd5b919050565b5f5f60408385031215610e5f575f5ffd5b610e6883610e33565b946020939093013593505050565b5f5f5f60608486031215610e88575f5ffd5b610e9184610e33565b9250602084013567ffffffffffffffff811115610eac575f5ffd5b610eb886828701610d43565b925050604084013567ffffffffffffffff811115610ed4575f5ffd5b610ee086828701610d43565b9150509250925092565b5f60208284031215610efa575f5ffd5b610f0382610e33565b9392505050565b6001600160a01b038716815260c0602082018190525f90610f2d90830188610c96565b6001600160a01b039690961660408301525060608101939093526080830191909152151560a09091015292915050565b634e487b7160e01b5f52603260045260245ffd5b600181811c90821680610f8557607f821691505b602082108103610fa357634e487b7160e01b5f52602260045260245ffd5b50919050565b6001600160a01b03851681526080602082018190525f90610fcc90830186610c96565b8281036040840152610fde8186610c96565b91505082606083015295945050505050565b634e487b7160e01b5f52601160045260245ffd5b5f6001820161101557611015610ff0565b5060010190565b601f82111561106357805f5260205f20601f840160051c810160208510156110415750805b601f840160051c820191505b81811015611060575f815560010161104d565b50505b505050565b815167ffffffffffffffff81111561108257611082610d2f565b611096816110908454610f71565b8461101c565b6020601f8211600181146110c8575f83156110b15750848201515b5f19600385901b1c1916600184901b178455611060565b5f84815260208120601f198516915b828110156110f757878501518255602094850194600190920191016110d7565b508482101561111457868401515f19600387901b60f8161c191681555b50505050600190811b01905550565b5f8261113d57634e487b7160e01b5f52601260045260245ffd5b500490565b808202811582820484141761115957611159610ff0565b92915050565b8082018082111561115957611159610ff0565b5f60208284031215611182575f5ffd5b81518015158114610f03575f5ffd5b5f602082840312156111a1575f5ffd5b505191905056fe608060405234801561000f575f5ffd5b50604051610bb6380380610bb683398101604081905261002e91610289565b8282600361003c8382610397565b5060046100498282610397565b505060058054336001600160a01b03199182168117909255600680549091166001600160a01b038816179055610080915082610089565b50505050610476565b6001600160a01b0382166100b75760405163ec442f0560e01b81525f60048201526024015b60405180910390fd5b6100c25f83836100c6565b5050565b6001600160a01b0383166100f0578060025f8282546100e59190610451565b909155506101609050565b6001600160a01b0383165f90815260208190526040902054818110156101425760405163391434e360e21b81526001600160a01b038516600482015260248101829052604481018390526064016100ae565b6001600160a01b0384165f9081526020819052604090209082900390555b6001600160a01b03821661017c5760028054829003905561019a565b6001600160a01b0382165f9081526020819052604090208054820190555b816001600160a01b0316836001600160a01b03167fddf252ad1be2c89b69c2b068fc378daa952ba7f163c4a11628f55a4df523b3ef836040516101df91815260200190565b60405180910390a3505050565b634e487b7160e01b5f52604160045260245ffd5b5f82601f83011261020f575f5ffd5b81516001600160401b03811115610228576102286101ec565b604051601f8201601f19908116603f011681016001600160401b0381118282101715610256576102566101ec565b60405281815283820160200185101561026d575f5ffd5b8160208501602083015e5f918101602001919091529392505050565b5f5f5f5f6080858703121561029c575f5ffd5b84516001600160a01b03811681146102b2575f5ffd5b60208601519094506001600160401b038111156102cd575f5ffd5b6102d987828801610200565b604087015190945090506001600160401b038111156102f6575f5ffd5b61030287828801610200565b606096909601519497939650505050565b600181811c9082168061032757607f821691505b60208210810361034557634e487b7160e01b5f52602260045260245ffd5b50919050565b601f82111561039257805f5260205f20601f840160051c810160208510156103705750805b601f840160051c820191505b8181101561038f575f815560010161037c565b50505b505050565b81516001600160401b038111156103b0576103b06101ec565b6103c4816103be8454610313565b8461034b565b6020601f8211600181146103f6575f83156103df5750848201515b5f19600385901b1c1916600184901b17845561038f565b5f84815260208120601f198516915b828110156104255787850151825560209485019460019092019101610405565b508482101561044257868401515f19600387901b60f8161c191681555b50505050600190811b01905550565b8082018082111561047057634e487b7160e01b5f52601160045260245ffd5b92915050565b610733806104835f395ff3fe608060405234801561000f575f5ffd5b50600436106100a6575f3560e01c8063313ce5671161006e578063313ce5671461013757806370a08231146101465780638da5cb5b1461016e57806395d89b4114610181578063a9059cbb14610189578063dd62ed3e1461019c575f5ffd5b806302d05d3f146100aa57806306fdde03146100da578063095ea7b3146100ef57806318160ddd1461011257806323b872dd14610124575b5f5ffd5b6006546100bd906001600160a01b031681565b6040516001600160a01b0390911681526020015b60405180910390f35b6100e26101d4565b6040516100d191906105a3565b6101026100fd3660046105f3565b610264565b60405190151581526020016100d1565b6002545b6040519081526020016100d1565b61010261013236600461061b565b61027d565b604051601281526020016100d1565b610116610154366004610655565b6001600160a01b03165f9081526020819052604090205490565b6005546100bd906001600160a01b031681565b6100e26102a0565b6101026101973660046105f3565b6102af565b6101166101aa366004610675565b6001600160a01b039182165f90815260016020908152604080832093909416825291909152205490565b6060600380546101e3906106a6565b80601f016020809104026020016040519081016040528092919081815260200182805461020f906106a6565b801561025a5780601f106102315761010080835404028352916020019161025a565b820191905f5260205f20905b81548152906001019060200180831161023d57829003601f168201915b5050505050905090565b5f336102718185856102bc565b60019150505b92915050565b5f3361028a8582856102ce565b61029585858561034e565b506001949350505050565b6060600480546101e3906106a6565b5f3361027181858561034e565b6102c983838360016103ab565b505050565b6001600160a01b038381165f908152600160209081526040808320938616835292905220545f198114610348578181101561033a57604051637dc7a0d960e11b81526001600160a01b038416600482015260248101829052604481018390526064015b60405180910390fd5b61034884848484035f6103ab565b50505050565b6001600160a01b03831661037757604051634b637e8f60e11b81525f6004820152602401610331565b6001600160a01b0382166103a05760405163ec442f0560e01b81525f6004820152602401610331565b6102c983838361047d565b6001600160a01b0384166103d45760405163e602df0560e01b81525f6004820152602401610331565b6001600160a01b0383166103fd57604051634a1406b160e11b81525f6004820152602401610331565b6001600160a01b038085165f908152600160209081526040808320938716835292905220829055801561034857826001600160a01b0316846001600160a01b03167f8c5be1e5ebec7d5bd14f71427d1e84f3dd0314c0f7b2291e5b200ac8c7c3b9258460405161046f91815260200190565b60405180910390a350505050565b6001600160a01b0383166104a7578060025f82825461049c91906106de565b909155506105179050565b6001600160a01b0383165f90815260208190526040902054818110156104f95760405163391434e360e21b81526001600160a01b03851660048201526024810182905260448101839052606401610331565b6001600160a01b0384165f9081526020819052604090209082900390555b6001600160a01b03821661053357600280548290039055610551565b6001600160a01b0382165f9081526020819052604090208054820190555b816001600160a01b0316836001600160a01b03167fddf252ad1be2c89b69c2b068fc378daa952ba7f163c4a11628f55a4df523b3ef8360405161059691815260200190565b60405180910390a3505050565b602081525f82518060208401528060208501604085015e5f604082850101526040601f19601f83011684010191505092915050565b80356001600160a01b03811681146105ee575f5ffd5b919050565b5f5f60408385031215610604575f5ffd5b61060d836105d8565b946020939093013593505050565b5f5f5f6060848603121561062d575f5ffd5b610636846105d8565b9250610644602085016105d8565b929592945050506040919091013590565b5f60208284031215610665575f5ffd5b61066e826105d8565b9392505050565b5f5f60408385031215610686575f5ffd5b61068f836105d8565b915061069d602084016105d8565b90509250929050565b600181811c908216806106ba57607f821691505b6020821081036106d857634e487b7160e01b5f52602260045260245ffd5b50919050565b8082018082111561027757634e487b7160e01b5f52601160045260245ffdfea26469706673582212206347ad87f4bb6072ddb7cb3c31119f25ebf748522b345013484e80cfd39a553964736f6c634300081b0033a2646970667358221220829c284112ceb3abd984fad4ffea26d03beb9870fc90e808a0189802a05a3c1b64736f6c634300081b0033","linkReferences":{}},"methodIdentifiers":{"DepositToken(address,string,string)":"88e1acdd","TARGET()":"cc1f2afa","WithdrawToken(uint256)":"a4b910fb","buyToken(address,uint256)":"68f8fc10","createToken(string,string)":"2f2f2d56","getCostPrice(uint256)":"f20d6a2a","getTokenSale(uint256)":"1fbc147b","listingFee()":"6a1b7ecc","owner()":"8da5cb5b","tokenToSale(address)":"9c0ad5ed","tokens(uint256)":"4f64b2be","totalTokens()":"7e1c0c09"},"id":5}